:100000000C945A000C946C000C946C000C946C00D2
:100010000C946C000C946C000C946C000C946C00B0
:100020000C946C000C946C000C946C000C946C00A0
:100030000C946C000C946C000C946C000C946C0090
:100040000C946C000C946C000C946C000C946C0080
:100050000C946C000C946C000C946C000C946C0070
:100060000C946C000C946C000C946C000C946C0060
:100070000C946C000C946C000C946C000C946C0050
:100080000C946C000C946C000C946C000C946C0040
:100090000C946C000C946C000C946C000C946C0030
:1000A0000C946C000C946C000C946C000C946C0020
:1000B0000C946C0011241FBECFEFD8E0DEBFCDBF83
:1000C00021E0A0E0B1E001C01D92A430B207E1F749
:1000D0000E94D2000C9447030C94000080E68093A9
:1000E0007C0085E880937A000895BF92CF92DF92DA
:1000F000EF92FF920F931F93CF93DF931092000123
:100100001092010110920201109203010F2EFAE0E9
:10011000BF2EF02DCAE7D0E008E710E088818064A8
:100120008883888186FDFDCFF80160817181C09050
:100130000001D0900101E0900201F090030180E005
:1001400090E00E949002A70196010E94AD01609389
:100150000001709301018093020190930301BA940E
:10016000B110DCCF6091000170910101809102011A
:100170009091030120E030E040E251E40E941E0231
:100180006093000170930101809302019093030139
:10019000DF91CF911F910F91FF90EF90DF90CF9063
:1001A000BF9008950E946E00409A82E084B98FE06B
:1001B0008AB987E893E19093870080938600E0E80E
:1001C000F0E08081806A8083808182608083E1E8C2
:1001D000F0E080818861808380818360808306E68F
:1001E0001CECD9E9C3E30E9475002FEF80E792E091
:1001F000215080409040E1F700C000000BB92FEF84
:1002000080E792E0215080409040E1F700C000007C
:100210001BB92FEF80E792E0215080409040E1F73A
:1002200000C00000DBB92FEF80E792E02150804052
:100230009040E1F700C00000CBB92FEF80E792E0DB
:10024000215080409040E1F700C000006091000123
:1002500070910101809102019091030120E030E44E
:1002600043E754E40E9442038823BCF060910001FC
:1002700070910101809102019091030120E030E032
:1002800040E854E40E94190288233CF48FE39CE97F
:100290000197F1F700C00000A6CF609100017091B6
:1002A0000101809102019091030120E030E043E7D9
:1002B00054E40E9419028823D4F4609100017091E3
:1002C0000101809102019091030120E030E040E4BF
:1002D00054E40E944203882354F09FEF20E782E019
:1002E000915020408040E1F700C000007CCF609139
:1002F000000170910101809102019091030120E0C1
:1003000030EC4FE354E40E9419028823D4F4609146
:10031000000170910101809102019091030120E0A0
:1003200030E04CE452E40E944203882354F09FEFF3
:1003300021EE84E0915020408040E1F700C00000B1
:1003400052CF1BB89FEF21EE84E0915020408040B7
:10035000E1F700C0000047CF5058BB27AA270E94F2
:10036000C4010C9408030E94FA0238F00E940103B1
:1003700020F039F49F3F19F426F40C94F7020EF4A0
:10038000E095E7FB0C94F102E92F0E94190358F362
:10039000BA17620773078407950720F079F4A6F56A
:1003A0000C943B030EF4E0950B2EBA2FA02D0B01FD
:1003B000B90190010C01CA01A0011124FF27591BAA
:1003C00099F0593F50F4503E68F11A16F040A22FB0
:1003D000232F342F4427585FF3CF46953795279521
:1003E000A795F0405395C9F77EF41F16BA0B620B20
:1003F000730B840BBAF09150A1F0FF0FBB1F661F67
:10040000771F881FC2F70EC0BA0F621F731F841FA9
:1004100048F4879577956795B795F7959E3F08F0CF
:10042000B0CF9395880F08F09927EE0F9795879591
:1004300008950E94CD0208F481E008950E943202DE
:100440000C9408030E94010358F00E94FA0240F045
:1004500029F45F3F29F00C94F10251110C943C03F4
:100460000C94F7020E94190368F39923B1F3552302
:1004700091F3951B550BBB27AA27621773078407B7
:1004800038F09F5F5F4F220F331F441FAA1FA9F34D
:1004900035D00E2E3AF0E0E832D091505040E6953B
:1004A000001CCAF72BD0FE2F29D0660F771F881F9C
:1004B000BB1F261737074807AB07B0E809F0BB0B8F
:1004C000802DBF01FF2793585F4F3AF09E3F5105A3
:1004D00078F00C94F1020C943C035F3FE4F3983EF7
:1004E000D4F3869577956795B795F7959F5FC9F78C
:1004F000880F911D9695879597F90895E1E0660F0D
:10050000771F881FBB1F621773078407BA0720F085
:10051000621B730B840BBA0BEE1F88F7E0950895EE
:10052000E89409C097FB3EF490958095709561958D
:100530007F4F8F4F9F4F9923A9F0F92F96E9BB2743
:100540009395F695879577956795B795F111F8CFBF
:10055000FAF4BB0F11F460FF1BC06F5F7F4F8F4F2A
:100560009F4F16C0882311F096E911C0772321F020
:100570009EE8872F762F05C0662371F096E8862FB8
:1005800070E060E02AF09A95660F771F881FDAF70F
:10059000880F9695879597F90895990F0008550F3C
:1005A000AA0BE0E8FEEF16161706E807F907C0F0F9
:1005B00012161306E407F50798F0621B730B840B01
:1005C000950B39F40A2661F0232B242B252B21F4DB
:1005D00008950A2609F4A140A6958FEF811D811D7B
:1005E000089597F99F6780E870E060E008959FEFB5
:1005F00080EC089500240A941616170618060906BA
:10060000089500240A941216130614060506089588
:10061000092E0394000C11F4882352F0BB0F40F410
:10062000BF2B11F460FF04C06F5F7F4F8F4F9F4F50
:10063000089557FD9058440F551F59F05F3F71F0D2
:100640004795880F97FB991F61F09F3F79F0879539
:100650000895121613061406551FF2CF4695F1DFC2
:1006600008C0161617061806991FF1CF8695710552
:10067000610508940895E894BB2766277727CB0186
:1006800097F908950E94CD0208F48FEF0895F89429
:02069000FFCF9A
:00000001FF
