S019000044657369676E41737369676E6D656E74362E7372656362
S11300000C9471000C9458070C948E000C948E0080
S11300100C948E000C948E000C948E000C948E0024
S11300200C948E000C948E000C948E000C948E0014
S11300300C948E000C941F070C948E000C948E006C
S11300400C948E000C948E000C948E000C94F0068C
S11300500C9443070C948E000C948E000C948E0028
S11300600C948E000C948E000C948E000C948E00D4
S11300700C948E000C948E000C948E000C948E00C4
S11300800C948E000C948E000C948E000C948E00B4
S11300900C948E000C948E000C948E000C948E00A4
S11300A00C948E000C948E000C948E000C948E0094
S11300B00C948E00084AD73B3BCE016E84BCBFFD36
S11300C0C12F3D6C74319ABD56833DDA3D00C77F24
S11300D011BED9E4BB4C3E916BAAAABE00000080BD
S11300E03F0011241FBECFEFD8E0DEBFCDBF11E02B
S11300F0A0E0B1E0EEEAFAE102C005900D92A8306A
S1130100B107D9F721E0A8E0B1E001C01D92AB36F8
S1130110B207E1F70E9415060C94550D0C940000EB
S11301208091B900887F883169F08832A9F08830DD
S113013041F580913301880F8093BB0084E880935C
S1130140BC000895E5E2F1E087858093BB00118A45
S113015084E88093BC0008958091360181110BC01E
S1130160E5E2F1E085858093BB0081E0818B84E842
S11301708093BC00089584E98093BC0010923501FB
S113018008951092350108958091B900887F8832CE
S113019019F140F4803121F18831B1F0883009F04F
S11301A064C009C0803591F1883509F454C08034A5
S11301B009F05BC01FC080913301880F8093BB009E
S11301C084E88093BC000895809134018093BB003F
S11301D084E88093BC00089584EA8093BC00089569
S11301E080913301880F81608093BB0084E8809301
S11301F0BC00089580913101811104C084E880938A
S1130200BC00089584EC8093BC0008958091310172
S1130210813061F4E0913101F0E08091BB00EB5D4D
S1130220FE4F808384E88093BC000895A5E2B1E08A
S11302301C96EC911C97F0E08091BB00EB5DFE4FA7
S113024080831C968C911C9781501C968C9384EC13
S11302508093BC0008958091BB00E5E2F1E08083C7
S113026084E98093BC00108A0895109235010895A2
S113027060916301709164018091650190916601C0
S113028020E030E0A9010E9403088823DCF4609197
S1130290630170916401809165019091660120E091
S11302A030E040EF50E40E94910920E030E84BEB4D
S11302B054E40E9468070E94810870938900609347
S11302C088000895609163017091640180916501D3
S11302D09091660120E030E040EF50E40E949109E3
S11302E020E030E84BEB54E40E9468070E94810848
S11302F07093890060938800089552985A9883E017
S11303008093690081E08DBB08954F925F926F9254
S11303107F928F929F92AF92BF92CF92DF92EF9291
S1130320FF92CF93DF93CDB7DEB72C970FB6F89437
S1130330DEBF0FBECDBFEFE3F1E084819581A681DE
S1130340B7818D839E83AF83B887C080D180E280DC
S1130350F38080809180A280B38040845184628441
S1130360738480859185A285B38589839A83AB83C1
S1130370BC83A5019401C701B6010E949109698754
S11303807A878B879C87A5019401C701B6010E94D7
S113039091096B017C0129813A814B815C81C30104
S11303A0B2010E9491099B01AC01C701B6010E94F0
S11303B068070E94040A9B01AC016D817E818F81D4
S11303C098850E9408080E94D40720EE3EE245E684
S11303D052E40E9491092C960FB6F894DEBF0FBE2A
S11303E0CDBFDF91CF91FF90EF90DF90CF90BF9082
S11303F0AF909F908F907F906F905F904F900895F3
S11304004F925F926F927F928F929F92AF92BF9220
S1130410CF92DF92EF92FF92CF93DF93CDB7DEB707
S11304202C970FB6F894DEBF0FBECDBFEFE3F1E01B
S113043080819181A281B3818D839E83AF83B887AC
S1130440C480D580E680F78084809580A680B780BC
S1130450408451846284738480859185A285B385A8
S113046089839A83AB83BC83A5019401C701B60138
S11304700E94910969877A878B879C87A5019401DB
S1130480C701B6010E9491096B017C0129813A815F
S11304904B815C81C301B2010E9491099B01AC01B3
S11304A0C701B6010E9468070E94040A9B01AC01BF
S11304B06D817E818F8198850E9408080E94D407EF
S11304C020EE3EE245E652E40E9491092C960FB6D6
S11304D0F894DEBF0FBECDBFDF91CF91FF90EF90B8
S11304E0DF90CF90BF90AF909F908F907F906F9050
S11304F05F904F9008950F931F93CF93DF93E5E29E
S1130500F1E091E0908B86874587678784E280934A
S1130510BC008089882361F0CCEBD0E08F01888116
S11305208823ECF70E949000F80180898111F7CFAD
S11305301092BC00DF91CF911F910F9108950F93FA
S11305401F93CF93DF93E5E2F1E091E0908B8687F0
S113055067874150448784E28093BC008089882364
S113056061F0CCEBD0E08F0188818823ECF70E9406
S1130570C400F80180898111F7CF1092BC00DF918B
S1130580CF911F910F91089510922001109267014D
S1130590109268011092690110926A0110923B0155
S11305A010923C0110923D0110923E01EBE4F1E007
S11305B0108211821282138214821582168217828B
S11305C0108611861286138648E16BE188E60E9444
S11305D07B024FE269E188E60E947B0240E267E326
S11305E088E60E947B0241E068E388E60E947B0281
S11305F040E06BE688E60E947B0241E06AE388E61D
S11306000E949F0208958F929F92AF92BF92CF92C1
S1130610DF92EF92FF920F931F93CF93DF9300D05B
S1130620CDB7DEB741E063E488E60E949F020F2E57
S1130630F5E2EF2EF1E0FF2EF02DF70180818983A2
S113064041E064E488E60E949F02F70180818A8386
S11306506A8189810BE411E0F80184849584A6847D
S1130660B78470E0782B072E000C880B990B0E943E
S1130670B208A50194010E9467070E947A08072E18
S1130680000C880B990B0E94B20820E030E040E88F
S11306905DE30E949109F8016083718382839383EF
S11306A041E065E488E60E949F02F7018081898326
S11306B041E066E488E60E949F02F70180818A8314
S11306C06A818981F80180889188A288B38870E062
S11306D0782B072E000C880B990B0E94B208A501F9
S11306E094010E9467070E947A08072E000C880B69
S11306F0990B0E94B20820E030E040E85DE30E94DC
S11307009109F801648375838683978341E067E4E4
S113071088E60E949F02F7018081898341E068E4B2
S113072088E60E949F02F70180818A836A81898119
S1130730F801C488D588E688F78870E0782B072EFE
S1130740000C880B990B0E94B208A70196010E9425
S113075067070E947A08072E000C880B990B0E94E9
S1130760B20820E030E040E85DE30E949109F8011E
S113077060877187828793870F900F90DF91CF9165
S11307801F910F91FF90EF90DF90CF90BF90AF90AB
S11307909F908F9008958F929F92AF92BF92CF9225
S11307A0DF92EF92FF920F931F93CF93DF9300D0CA
S11307B0CDB7DEB741E063E488E60E949F020F2EC6
S11307C0F5E2EF2EF1E0FF2EF02DF7018081898311
S11307D041E064E488E60E949F02F70180818A83F5
S11307E06A8189810BE411E0F80180809180A28004
S11307F0B38070E0782B072E000C880B990B0E94B5
S1130800B208A50194010E946807F801608371830E
S11308108283938341E065E488E60E949F02F701A6
S11308208081898341E066E488E60E949F02F701A3
S113083080818A836A818981F80184809580A68079
S1130840B78070E0782B072E000C880B990B0E9460
S1130850B208A50194010E946807F80164837583B6
S11308608683978341E067E488E60E949F02F7014C
S11308708081898341E068E488E60E949F02F70151
S113088080818A836A818981F801C084D184E28469
S1130890F38470E0782B072E000C880B990B0E94D0
S11308A0B208A70196010E946807F8016087718762
S11308B0828793870F900F90DF91CF911F910F91B3
S11308C0FF90EF90DF90CF90BF90AF909F908F906C
S11308D00895CF93DF93C8ECD0E080912001882362
S11308E0E1F3109220010E94CB0341E06AE388E621
S11308F00E949F02219789F7CBE4D1E06881798136
S11309008A819B8120E030E048E453E40E94080897
S11309106C877D878E879F876C817D818E819F8187
S113092020E030E048E453E40E940808688B798BA7
S11309308A8B9B8B688579858A859B8520E030E04E
S113094048E453E40E9408086C8B7D8B8E8B9F8B4C
S1130950188219821A821B821C821D821E821F82A7
S1130960188619861A861B8641E06AE388E60E9487
S11309709F02DF91CF910895EF92FF920F931F93FF
S1130980CF93DF9300D0CDB7DEB741E06BE388E6C9
S11309900E949F020F2EF5E2EF2EF1E0FF2EF02DC4
S11309A0F7018081898341E06CE388E60E949F021D
S11309B0F70180818A836A81898170E0782B072E10
S11309C0000C880B990B0E94B20820E030E040E84C
S11309D058E30E9491090FE311E0F80160837183E9
S11309E08283938341E06DE388E60E949F02F701CE
S11309F08081898341E06EE388E60E949F02F701CB
S1130A0080818A836A81898170E0782B072E000CAB
S1130A10880B990B0E94B20820E030E040E858E3CC
S1130A200E949109F801648375838683978341E06A
S1130A306FE388E60E949F02F7018081898341E089
S1130A4060E488E60E949F02F70180818A836A81BC
S1130A50898170E0782B072E000C880B990B0E947B
S1130A60B20820E030E040E858E30E949109F80120
S1130A7060877187828793870F900F90DF91CF9162
S1130A801F910F91FF90EF9008958CE08093B80030
S1130A90E9EBF0E0808180830895CF93DF939F9307
S1130AA08F937F936F9380E091E09F938F931F9236
S1130AB084E18F93C8E0D1E0DF93CF930E945D0A75
S1130AC0D0931D01C0931C018DB79EB70A960FB633
S1130AD0F8949EBF0FBE8DBFDF91CF91089581E042
S1130AE090E090931F0180931E01E1ECF0E080817F
S1130AF08866808380911E0190911F01892BD1F714
S1130B0008950F931F93CF93DF938C01FC016081B1
S1130B107181828193810E944D050E946F05C2E01C
S1130B20D1E0D0931D01C0931C010E946F05F80110
S1130B3064817581868197810E944D050E946F05AD
S1130B40D0931D01C0931C010E946F05F8016085BC
S1130B507185828593850E944D050E946F05D0930F
S1130B601D01C0931C010E946F05DF91CF911F915D
S1130B700F9108950F931F93CF93DF938C01FC0182
S1130B8060817181828193810E944D050E946F056D
S1130B90C2E0D1E0D0931D01C0931C010E946F05F7
S1130BA0F80164817581868197810E944D050E94B8
S1130BB06F05D0931D01C0931C010E946F05F801BD
S1130BC060857185828593850E944D050E946F051D
S1130BD0D0931D01C0931C010E946F05DF91CF913A
S1130BE01F910F9108959C01E0E8F0E090819068D6
S1130BF09083309387002093860008951092840098
S1130C0010928500E0E8F0E0808182608083E1E872
S1130C10F0E0808180618083AFE6B0E08C918160F8
S1130C208C9380818260808308958FEF8093250167
S1130C30C2E0C4B90E9445051092C500C093C40027
S1130C4086E08093C2000E947D0180E29EE40E94BF
S1130C50F30578940E94FE050E94C4020E94690470
S1130C6003E611E00F2EF2E0CF2EF1E0DF2EF02D9F
S1130C70C7E3D1E00F2EF4E02F2EF1E03F2EF02D4C
S1130C80809120018823E1F3109220010E94BC048A
S1130C900E9403038FE391E00E9481058BE491E0BD
S1130CA00E94BA050E9485012B013C010F2EFBE432
S1130CB0EF2EF1E0FF2EF02DF7016081718182812A
S1130CC09381F80184809580A680B7802AE037ED6F
S1130CD043E25CE30E949109A50194010E94680724
S1130CE02FE832EC45E75FE30E9491094B015C0178
S1130CF02AE037ED43EA5CE3C301B2010E949109A3
S1130D009B01AC01C501B4010E946807F80164832A
S1130D1075838683978384819581A681B781808337
S1130D209183A283B38360817181828193810E94C4
S1130D304D050E946F05D0921D01C0921C010E94B6
S1130D406F050E9400024B015C01F701648175810B
S1130D50868197814C805D806E807F802AE037EDAC
S1130D6043E25CE30E949109A30192010E94680797
S1130D702FE832EC45E75FE30E9491092B013C0127
S1130D802AE037ED43EA5CE3C501B4010E9491090E
S1130D909B01AC01C301B2010E9468076C837D838F
S1130DA08E839F838C819D81AE81BF81888399834B
S1130DB0AA83BB83688179818A819B810E944D05C6
S1130DC00E946F050E946F0530921D0120921C0144
S1130DD00E946F0541E06AE388E60E949F0250CFBB
S1130DE01F920F920FB60F9211248F939F93EF933C
S1130DF0FF93E0911C01F0911D018081882369F02B
S1130E0080818093C60080911C0190911D01019600
S1130E1090931D0180931C0109C0E1ECF0E08081F6
S1130E208F7D808310921F0110921E01FF91EF911C
S1130E309F918F910F900FBE0F901F9018951F9246
S1130E400F920FB60F9211242F933F934F935F93FA
S1130E506F937F938F939F93AF93BF93EF93FF937E
S1130E600E943801FF91EF91BF91AF919F918F91B3
S1130E707F916F915F914F913F912F910F900FBE92
S1130E800F901F9018951F920F920FB60F92112476
S1130E908F93EF93FF93E1ECF0E08081877B808375
S1130EA0FF91EF918F910F900FBE0F901F901895A7
S1130EB01F920F920FB60F9211248F9381E08093AB
S1130EC020018F910F900FBE0F901F9018955058CE
S1130ED0BB27AA270E947F070C944F090E9441094F
S1130EE038F00E94480920F039F49F3F19F426F4A1
S1130EF00C9417090EF4E095E7FB0C941109E92F03
S1130F000E94600958F3BA176207730784079507AC
S1130F1020F079F4A6F50C9482090EF4E0950B2EDA
S1130F20BA2FA02D0B01B90190010C01CA01A00137
S1130F301124FF27591B99F0593F50F4503E68F192
S1130F401A16F040A22F232F342F4427585FF3CFD3
S1130F50469537952795A795F0405395C9F77EF4A4
S1130F601F16BA0B620B730B840BBAF09150A1F0ED
S1130F70FF0FBB1F661F771F881FC2F70EC0BA0F73
S1130F80621F731F841F48F4879577956795B795FB
S1130F90F7959E3F08F0B0CF9395880F08F09927F6
S1130FA0EE0F979587950895DF93DD27B92FBF77C7
S1130FB040E85FE31616170648075B0718F4D92FB5
S1130FC00E9489099F938F937F936F930E94440A91
S1130FD0E4EBF0E00E941A090E944F092F913F911F
S1130FE04F915F910E94A409DD2351F09058A2EA29
S1130FF02AED3FE049EC5FE3D0785D270E947F074C
S1131000DF910C944F090E94ED0808F481E00895E3
S11310100E941C080C944F090E94480958F00E9431
S1131020410940F029F45F3F29F00C941109511152
S11310300C9483090C9417090E94600968F399239E
S1131040B1F3552391F3951B550BBB27AA276217C0
S11310507307840738F09F5F5F4F220F331F441FCD
S1131060AA1FA9F335D00E2E3AF0E0E832D0915001
S11310705040E695001CCAF72BD0FE2F29D0660FEE
S1131080771F881FBB1F261737074807AB07B0E831
S113109009F0BB0B802DBF01FF2793585F4F3AF037
S11310A09E3F510578F00C9411090C9483095F3F1D
S11310B0E4F3983ED4F3869577956795B795F795BD
S11310C09F5FC9F7880F911D9695879597F90895A5
S11310D0E1E0660F771F881FBB1F62177307840741
S11310E0BA0720F0621B730B840BBA0BEE1F88F750
S11310F0E09508950E9481086894B1110C948309C5
S113110008950E94680988F09F5798F0B92F99278D
S1131110B751B0F0E1F0660F771F881F991F1AF0DE
S1131120BA95C9F714C0B13091F00E948209B1E0B8
S113113008950C948209672F782F8827B85F39F0B7
S1131140B93FCCF3869577956795B395D9F73EF477
S113115090958095709561957F4F8F4F9F4F08951F
S1131160E89409C097FB3EF490958095709561953D
S11311707F4F8F4F9F4F9923A9F0F92F96E9BB27F3
S11311809395F695879577956795B795F111F8CF6F
S1131190FAF4BB0F11F460FF1BC06F5F7F4F8F4FDA
S11311A09F4F16C0882311F096E911C0772321F0D0
S11311B09EE8872F762F05C0662371F096E8862F68
S11311C070E060E02AF09A95660F771F881FDAF7BF
S11311D0880F9695879597F90895990F0008550FEC
S11311E0AA0BE0E8FEEF16161706E807F907C0F0A9
S11311F012161306E407F50798F0621B730B840BB1
S1131200950B39F40A2661F0232B242B252B21F48A
S113121008950A2609F4A140A6958FEF811D811D2A
S1131220089597F99F6780E870E060E008959FEF64
S113123080EC0895DF93CF931F930F93FF92EF9267
S1131240DF927B018C01689406C0DA2EEF010E94C4
S1131250A409FE01E894A5912591359145915591F4
S1131260A6F3EF010E947F07FE019701A801DA941B
S113127069F7DF90EF90FF900F911F91CF91DF916D
S1131280089500240A9416161706180609060895E8
S113129000240A9412161306140605060895092E4E
S11312A00394000C11F4882352F0BB0F40F4BF2BBD
S11312B011F460FF04C06F5F7F4F8F4F9F4F0895FD
S11312C057FD9058440F551F59F05F3F71F04795F3
S11312D0880F97FB991F61F09F3F79F087950895D8
S11312E0121613061406551FF2CF4695F1DF08C0F7
S11312F0161617061806991FF1CF86957105610514
S113130008940895E894BB2766277727CB0197F9BB
S113131008959B01AC0160E070E080E89FE30C94C9
S113132008080E94A4090C944F090E94410938F04E
S11313300E94480920F0952311F00C9411090C9493
S1131340170911240C9483090E94600970F3959F76
S1131350C1F3950F50E0551F629FF001729FBB27A8
S1131360F00DB11D639FAA27F00DB11DAA1F649F44
S11313706627B00DA11D661F829F2227B00DA11DF7
S1131380621F739FB00DA11D621F839FA00D611D7D
S1131390221F749F3327A00D611D231F849F600D9E
S11313A0211D822F762F6A2F11249F5750409AF0C7
S11313B0F1F088234AF0EE0FFF1FBB1F661F771F53
S11313C0881F91505040A9F79E3F510580F00C941E
S11313D011090C9483095F3FE4F3983ED4F3869596
S11313E077956795B795F795E7959F5FC1F7FE2BBE
S11313F0880F911D9695879597F9089519F416F419
S11314000C9417090C94480A0E946809B8F39923AC
S1131410C9F3B6F39F57550B87FF0E94560A002461
S1131420A0E640EA900180585695979528F4805C90
S1131430660F771F881F20F026173707480730F4F8
S1131440621B730B840B202931294A2BA695179410
S11314500794202531254A2758F7660F771F881FE0
S113146020F026173707480730F4620B730B840B00
S1131470200D311D411DA09581F7B901842F91588C
S1131480880F9695879508959B01AC010C9491095A
S11314909F3F31F0915020F4879577956795B795E4
S11314A0880F911D9695879597F90895915050400E
S11314B0660F771F881FD2F70895AEE0B0E0E3E629
S11314C0FAE00C942C0D0D891E898F89988D26E0E5
S11314D02C831A83098397FF02C080E090E8019768
S11314E09E838D83AE01455E5F4F698D7A8DCE01FB
S11314F001960E948D0A4D815E8157FD0AC02F819D
S11315003885421753070CF49A01F801E20FF31FD0
S113151010822E96E4E00C94480DABE0B0E0E3E9D1
S1131520FAE00C941E0D6C017B018A01FC01178208
S11315301682838181FFCCC1CE0101963C01F60164
S11315409381F70193FD859193FF81917F01882316
S113155009F4BAC1853239F493FD859193FF8191E1
S11315607F01853229F4B60190E00E94840CE7CF14
S1131570912C212C312CFFE1F315D8F08B3279F02A
S113158038F4803279F08332A1F4232D20611DC018
S11315908D3261F0803369F4232D216016C0832DD0
S11315A08260382EE32DE4603E2E2AC0F32DF860CD
S11315B01DC037FC2DC020ED280F2A3040F08E329C
S11315C0B9F436FC81C1232D2064322E19C036FEB5
S11315D006C08AE0989E200D1124922E11C0EAE0E4
S11315E02E9E200D1124222EF32DF0623F2E08C0D2
S11315F08C3621F4832D8068382E02C0883641F45D
S1131600F70193FD859193FF81917F018111B3CF00
S1131610982F9F7D9554933028F40C5F1F4F9FE3C0
S113162099830DC0833631F0833771F0833509F027
S113163059C021C0F801808189830E5F1F4F88241F
S11316408394912C530113C02801F2E04F0E511CD6
S1131650F801A080B18036FE03C0692D70E002C09D
S11316606FEF7FEFC5010E94790C4C018201F32DCD
S1131670FF773F2E16C0280122E0420E511CF801CC
S1131680A080B18036FE03C0692D70E002C06FEF08
S11316907FEFC5010E946E0C4C01F32DF0683F2EC4
S11316A0820133FC1BC0822D90E088169906B0F4A9
S11316B0B60180E290E00E94840C2A94F4CFF501F4
S11316C037FC859137FE81915F01B60190E00E945D
S11316D0840C21102A9421E0821A91088114910427
S11316E071F7E8C0843611F0893641F5F80137FE08
S11316F007C060817181828193810C5F1F4F08C094
S113170060817181072E000C880B990B0E5F1F4FAF
S1131710F32DFF763F2E97FF09C090958095709525
S113172061957F4F8F4F9F4FF0683F2E2AE030E046
S1131730A3010E94C00C882E861845C0853731F459
S1131740232D2F7EB22E2AE030E025C0932D997FE1
S1131750B92E8F36C1F018F4883579F0B5C08037CA
S113176019F0883721F0B0C0E92FE061BE2EB4FE35
S11317700DC0FB2DF460BF2E09C034FE0AC0292F12
S11317802660B22E06C028E030E005C020E130E03B
S113179002C020E132E0F801B7FE07C06081718128
S11317A0828193810C5F1F4F06C06081718180E04C
S11317B090E00E5F1F4FA3010E94C00C882E861874
S11317C0FB2DFF773F2E36FE0DC0232D2E7FA22E3C
S11317D0891458F434FE0BC032FC09C0832D8E7E6C
S11317E0A82E05C0B82CA32C03C0B82C01C0B92C5A
S11317F0A4FE0FC0FE01E80DF11D8081803321F4A9
S11318009A2D997EA92E09C0A2FE06C0B394B39462
S113181004C08A2D867809F0B394A3FC11C0A0FEFD
S113182006C0B21488F4280C922C9B180EC0B21473
S113183060F4B60180E290E00E94840CB394F7CF88
S1131840B21418F42B1802C0982C212CA4FE10C03A
S1131850B60180E390E00E94840CA2FE17C0A1FCB4
S113186003C088E790E002C088E590E0B6010CC0B0
S11318708A2D867859F0A1FE02C08BE201C080E275
S1131880A7FC8DE2B60190E00E94840C891438F420
S1131890B60180E390E00E94840C9A94F7CF8A9476
S11318A0F301E80DF11D8081B60190E00E94840CE3
S11318B08110F5CF222009F442CEB60180E290E0F7
S11318C00E94840C2A94F6CFF6018681978102C087
S11318D08FEF9FEF2B96E2E10C943A0DFC010590FB
S11318E0615070400110D8F7809590958E0F9F1F1E
S11318F00895FC016150704001900110D8F7809563
S113190090958E0F9F1F08950F931F93CF93DF938E
S1131910FB01238121FD03C08FEF9FEF2CC022FF29
S113192016C046815781248135814217530744F4F8
S1131930A081B1819D012F5F3F4F318320838C9320
S1131940268137812F5F3F4F3783268314C08B0155
S1131950EC01FB010084F185E02D0995892BE1F66A
S1131960D80116968D919C911797019617969C9382
S11319708E931697CE01DF91CF911F910F91089509
S1131980FA01AA27283051F1203181F1E8946F93AC
S11319906E7F6E5F7F4F8F4F9F4FAF4FB1E03ED052
S11319A0B4E03CD0670F781F891F9A1FA11D680FF0
S11319B0791F8A1F911DA11D6A0F711D811D911D23
S11319C0A11D20D009F468943F912AE0269F112498
S11319D03019305D3193DEF6CF010895462F4770FC
S11319E0405D4193B3E00FD0C9F7F6CF462F4F7057
S11319F0405D4A3318F0495D31FD4052419302D0B5
S1131A00A9F7EACFB4E0A69597958795779567955A
S1131A10BA95C9F700976105710508959B01AC015A
S1131A200A2E06945795479537952795BA95C9F781
S1131A30620F731F841F951FA01D08952F923F925C
S1131A404F925F926F927F928F929F92AF92BF92CA
S1131A50CF92DF92EF92FF920F931F93CF93DF9376
S1131A60CDB7DEB7CA1BDB0B0FB6F894DEBF0FBED3
S1131A70CDBF09942A88398848885F846E847D8420
S1131A808C849B84AA84B984C884DF80EE80FD8022
S1131A900C811B81AA81B981CE0FD11D0FB6F89498
S1111AA0DEBF0FBECDBFED010895F894FFCF59
S10B1AAE256620000D0A00006A
S9030000FC
