:100000000C945A000C946C000C946C000C946C00D2
:100010000C946C000C946C000C946C000C946C00B0
:100020000C946C000C946C000C946C000C946C00A0
:100030000C946C000C946C000C946C000C946C0090
:100040000C9477000C946C000C946C000C946C0075
:100050000C946C000C946C000C946C000C946C0070
:100060000C946C000C946C000C946C000C946C0060
:100070000C946C000C946C000C946C000C946C0050
:100080000C946C000C946C000C946C000C946C0040
:100090000C946C000C946C000C946C000C946C0030
:1000A0000C946C000C946C000C946C000C946C0020
:1000B0000C946C0011241FBECFEFD8E0DEBFCDBF83
:1000C00021E0A0E0B1E001C01D92A130B207E1F74C
:1000D0000E9496000C94BB000C94000014BC85E0B8
:1000E00085BD16BC81E080936E00789408951F92C0
:1000F0000F920FB60F9211248F93809100018F5FA2
:10010000809300018F910F900FBE0F901F90189554
:1001100014B8109200010E946E00229A8091000192
:100120008A37E0F314B81092000108953B98439A7F
:100130000E946E0088E084B910E0C1E0D12F08E091
:10014000339B0E94880090910001209100018C2F28
:10015000943108F48D2F882331F08C2F293108F049
:100160008D2F811114B8809100018A3148F304B9B0
:0A01700010930001E5CFF894FFCFD3
:00000001FF
