:100000000C945A000C9483000C9464000C946400CB
:100010000C9464000C9464000C9464000C946400D0
:100020000C9464000C9464000C9464000C946400C0
:100030000C9464000C9464000C9464000C946400B0
:100040000C9464000C9464000C9464000C946400A0
:100050000C9464000C9464000C9464000C94640090
:100060000C9464000C9464000C9464000C94640080
:100070000C9464000C9464000C9464000C94640070
:100080000C9464000C9464000C9464000C94640060
:100090000C9464000C9464000C9464000C94640050
:1000A0000C9464000C9464000C9464000C94640040
:1000B0000C94640011241FBECFEFD8E0DEBFCDBF8B
:1000C0000E9466000C94A1000C940000239A2B98C7
:1000D00082E08093690081E08DBB78942B9A2FE7B2
:1000E0008AE294E1215080409040E1F700C0000096
:1000F0002B982FE784E790E1215080409040E1F772
:1001000000C00000EBCF1F920F920FB60F92112488
:100110002F938F939F932398229A2FEF87EA91E64C
:10012000215080409040E1F700C000002A982298BA
:10013000239A9F918F912F910F900FBE0F901F9038
:060140001895F894FFCFB2
:00000001FF
