S01C000044657369676E41737369676E6D656E74324354312E737265639B
S11300000C945A000C9464000C9464000C946400E6
S11300100C9464000C9464000C9464000C946400CC
S11300200C9464000C9464000C9464000C946400BC
S11300300C9464000C9464000C9464000C946400AC
S11300400C9464000C9464000C9464000C9464009C
S11300500C9464000C9464000C9464000C9464008C
S11300600C9464000C9464000C9464000C9464007C
S11300700C9464000C9464000C9464000C9464006C
S11300800C9464000C9464000C9464000C9464005C
S11300900C9464000C9464000C9464000C9464004C
S11300A00C9464000C9464000C9464000C9464003C
S11300B00C94640011241FBECFEFD8E0DEBFCDBF87
S11300C00E948B000C9497000C94000014BC85E0F3
S11300D085BD16BC0895239A89E190E021E0A89B90
S11300E0FECF25BB0197D9F7089514B884E190E0B9
S11300F021E0A89BFECF25BB0197D9F7089514B83A
S1130100229A8AE790E021E0A89BFECF25BB0197C5
S1130110D9F714B808953B98439A0E946600339B1C
S11301200E947F000E946B000E947500F6CFF89435
S1050130FFCFFB
S9030000FC
