:100000000C945A000C9477000C9477000C947700B1
:100010000C9477000C9477000C9477000C94770084
:100020000C9477000C9477000C94FD010C947700ED
:100030000C9477000C9477000C9477000C94770064
:100040000C94E8010C9477000C9477000C947700E2
:100050000C94A1010C94B6010C9477000C947700D9
:100060000C9477000C9477000C9477000C94770034
:100070000C9477000C9477000C9477000C94770024
:100080000C9477000C946B020C9477000C9477001E
:100090000C9477000C9477000C9477000C94770004
:1000A0000C9477000C9434020C9477000C94770035
:1000B0000C94770011241FBECFEFD8E0DEBFCDBF78
:1000C00011E0A0E0B1E0ECE5FFE002C005900D9288
:1000D000AC32B107D9F721E0ACE2B1E001C01D922A
:1000E000A234B207E1F70E9445010C94AC070C94CE
:1000F000000080E680937C0085E880937A00089574
:100100001092C50087E68093C40086E08093C20009
:1001100088E18093C1000895CF93DF93DC018C9137
:10012000882361F0E0ECF0E0C6ECD0E0908195FF30
:10013000FDCF8D9188838C918111F8CFDF91CF9184
:10014000089584B5806884BD84B584BD85B585BDBA
:10015000EEE6F0E080818160808316BC17BC85B537
:10016000826085BD08951092900088E08093910090
:100170008FE692E0909399008093980008952F92D3
:100180003F924F925F926F927F928F929F92AF9227
:10019000BF92CF92DF92EF92FF920F931F93CF9374
:1001A000DF930F2EF4E1EF2EF12CF02D412C512C8A
:1001B00032010F2EF4E98F2E912CF02D0F2EF4EA40
:1001C0002F2E312CF02D0F2EF2E7AF2EB12CF02D6B
:1001D0000F2EF1E7CF2ED12CF02D01EA10E0C1E96E
:1001E000D0E0F40111821082F10111821082F50138
:1001F000808180628083F601808182608083F80143
:100200008081876480838881846088838881887FF7
:1002100088838081887F8083609136017091370167
:10022000809138019091390120E030E040E752E4BC
:100230000E94470420E030E040EC52E40E94F402C7
:100240009B01AC01C301B2010E9483022B013C015E
:10025000F1E0EF1AF10829F620E030E040EA51E43D
:100260000E94F402DF91CF911F910F91FF90EF90C8
:10027000DF90CF90BF90AF909F908F907F906F90C6
:100280005F904F903F902F900895569A54985598AC
:100290005C985D98209A28986A9A7298389A409843
:1002A0000E9479000E9480000E94A1000E94B30079
:1002B000789407E211E00F2EFAE0FF2EF02DCCE249
:1002C000D1E060913A0170913B0180913C019091A5
:1002D0003D0120E030E040EA50E40E94EF02882334
:1002E0002CF480E091E00E948C0021C085E191E037
:1002F0000E948C000E94BF009F938F937F936F9307
:100300001F930F931F92FF92DF93CF930E94B40429
:10031000CE010E948C0082E191E00E948C008DB79A
:100320009EB70A960FB6F8949EBF0FBE8DBF9FEF83
:1003300023ED80E3915020408040E1F700C00000B1
:10034000C0CF1F920F920FB60F9211248F93EF938D
:10035000FF93E1ECF0E08081877B8083FF91EF9158
:100360008F910F900FBE0F901F9018951F920F92B4
:100370000FB60F9211242F933F934F935F936F9378
:100380007F938F939F93AF93BF93EF93FF93EAE78E
:10039000F0E08081877F808360913A0170913B011A
:1003A00080913C0190913D010E94660367BDFF91E1
:1003B000EF91BF91AF919F918F917F916F915F91DD
:1003C0004F913F912F910F900FBE0F901F90189556
:1003D0001F920F920FB60F9211248F93EF93FF93FA
:1003E000EAE7F0E0808188608083FF91EF918F9150
:1003F0000F900FBE0F901F9018951F920F920FB67F
:100400000F9211242F933F934F935F936F937F939A
:100410008F939F93AF93BF93EF93FF93EFE6F0E03B
:1004200080818F7D8083609186007091870080E05D
:1004300090E00E94950360933E0170933F0180938A
:10044000400190934101FF91EF91BF91AF919F9136
:100450008F917F916F915F914F913F912F910F906D
:100460000FBE0F901F9018951F920F920FB60F920C
:1004700011242F933F934F935F936F937F938F93A9
:100480009F93AF93BF93EF93FF93E2E7F0E08081F8
:100490008F7D80836091A6007091A70080E090E03E
:1004A0000E94950360933601709337018093380161
:1004B00090933901FF91EF91BF91AF919F918F91EF
:1004C0007F916F915F914F913F912F910F900FBE50
:1004D0000F901F9018951F920F920FB60F92112434
:1004E0008F93EF93FF93709A289AE1E7F0E0808171
:1004F0008D7F8083FF91EF918F910F900FBE0F90B2
:100500001F9018955058BB27AA270E949A020C9456
:100510000D040E94FF0338F00E94060420F039F415
:100520009F3F19F426F40C94FC030EF4E095E7FBCE
:100530000C94F603E92F0E941E0458F3BA176207C1
:1005400073078407950720F079F4A6F50C9440040E
:100550000EF4E0950B2EBA2FA02D0B01B9019001DE
:100560000C01CA01A0011124FF27591B99F0593F22
:1005700050F4503E68F11A16F040A22F232F342F6A
:100580004427585FF3CF469537952795A795F040B8
:100590005395C9F77EF41F16BA0B620B730B840BCD
:1005A000BAF09150A1F0FF0FBB1F661F771F881F85
:1005B000C2F70EC0BA0F621F731F841F48F48795DD
:1005C00077956795B795F7959E3F08F0B0CF9395CF
:1005D000880F08F09927EE0F9795879508950E9448
:1005E000D20308F481E008950E9408030C940D04DE
:1005F0000E94060458F00E94FF0340F029F45F3F78
:1006000029F00C94F60351110C9441040C94FC0352
:100610000E941E0468F39923B1F3552391F3951BAF
:10062000550BBB27AA2762177307840738F09F5F13
:100630005F4F220F331F441FAA1FA9F335D00E2E80
:100640003AF0E0E832D091505040E695001CCAF7ED
:100650002BD0FE2F29D0660F771F881FBB1F2617B0
:1006600037074807AB07B0E809F0BB0B802DBF0187
:10067000FF2793585F4F3AF09E3F510578F00C9456
:10068000F6030C9441045F3FE4F3983ED4F386955F
:1006900077956795B795F7959F5FC9F7880F911D77
:1006A0009695879597F90895E1E0660F771F881F63
:1006B000BB1F621773078407BA0720F0621B730B16
:1006C000840BBA0BEE1F88F7E09508950E9426046C
:1006D00088F09F5798F0B92F9927B751B0F0E1F003
:1006E000660F771F881F991F1AF0BA95C9F714C0B3
:1006F000B13091F00E944004B1E008950C944004A0
:10070000672F782F8827B85F39F0B93FCCF38695EB
:1007100077956795B395D9F73EF490958095709548
:1007200061957F4F8F4F9F4F0895E89409C097FBC5
:100730003EF490958095709561957F4F8F4F9F4FB8
:100740009923A9F0F92F96E9BB279395F6958795FC
:1007500077956795B795F111F8CFFAF4BB0F11F4BF
:1007600060FF1BC06F5F7F4F8F4F9F4F16C0882366
:1007700011F096E911C0772321F09EE8872F762F9C
:1007800005C0662371F096E8862F70E060E02AF0DD
:100790009A95660F771F881FDAF7880F96958795C9
:1007A00097F90895990F0008550FAA0BE0E8FEEF9E
:1007B00016161706E807F907C0F012161306E40725
:1007C000F50798F0621B730B840B950B39F40A261E
:1007D00061F0232B242B252B21F408950A2609F4FC
:1007E000A140A6958FEF811D811D089597F99F6700
:1007F00080E870E060E008959FEF80EC08950024A9
:100800000A941616170618060906089500240A9475
:1008100012161306140605060895092E0394000CFB
:1008200011F4882352F0BB0F40F4BF2B11F460FF8A
:1008300004C06F5F7F4F8F4F9F4F089557FD9058B3
:10084000440F551F59F05F3F71F04795880F97FB94
:10085000991F61F09F3F79F087950895121613064E
:100860001406551FF2CF4695F1DF08C0161617067D
:100870001806991FF1CF86957105610508940895B2
:10088000E894BB2766277727CB0197F908950E9444
:100890005A040C940D040E94FF0338F00E940604D1
:1008A00020F0952311F00C94F6030C94FC03112412
:1008B0000C9441040E941E0470F3959FC1F3950FA0
:1008C00050E0551F629FF001729FBB27F00DB11DD4
:1008D000639FAA27F00DB11DAA1F649F6627B00D64
:1008E000A11D661F829F2227B00DA11D621F739F4D
:1008F000B00DA11D621F839FA00D611D221F749F5B
:100900003327A00D611D231F849F600D211D822FA1
:10091000762F6A2F11249F5750409AF0F1F08823C8
:100920004AF0EE0FFF1FBB1F661F771F881F9150F5
:100930005040A9F79E3F510580F00C94F6030C94AB
:1009400041045F3FE4F3983ED4F38695779567952D
:10095000B795F795E7959F5FC1F7FE2B880F911D1F
:100960009695879597F90895AEE0B0E0EAEBF4E04C
:100970000C9483070D891E898F89988D26E02C831E
:100980001A83098397FF02C080E090E801979E8355
:100990008D83AE01455E5F4F698D7A8DCE010196E4
:1009A0000E94E4044D815E8157FD0AC02F81388585
:1009B000421753070CF49A01F801E20FF31F10825B
:1009C0002E96E4E00C949F07ABE0B0E0EAEEF4E092
:1009D0000C9475076C017B018A01FC011782168259
:1009E000838181FFCCC1CE0101963C01F601938148
:1009F000F70193FD859193FF81917F01882309F48D
:100A0000BAC1853239F493FD859193FF81917F01BD
:100A1000853229F4B60190E00E94DB06E7CF912CE5
:100A2000212C312CFFE1F315D8F08B3279F038F41A
:100A3000803279F08332A1F4232D20611DC08D32E4
:100A400061F0803369F4232D216016C0832D82600C
:100A5000382EE32DE4603E2E2AC0F32DF8601DC031
:100A600037FC2DC020ED280F2A3040F08E32B9F42B
:100A700036FC81C1232D2064322E19C036FE06C0FB
:100A80008AE0989E200D1124922E11C0EAE02E9E3D
:100A9000200D1124222EF32DF0623F2E08C08C363B
:100AA00021F4832D8068382E02C0883641F4F70186
:100AB00093FD859193FF81917F018111B3CF982F91
:100AC0009F7D9554933028F40C5F1F4F9FE39983CB
:100AD0000DC0833631F0833771F0833509F059C08A
:100AE00021C0F801808189830E5F1F4F8824839481
:100AF000912C530113C02801F2E04F0E511CF80154
:100B0000A080B18036FE03C0692D70E002C06FEF97
:100B10007FEFC5010E94D0064C018201F32DFF77C3
:100B20003F2E16C0280122E0420E511CF801A08081
:100B3000B18036FE03C0692D70E002C06FEF7FEF19
:100B4000C5010E94C5064C01F32DF0683F2E8201BD
:100B500033FC1BC0822D90E088169906B0F4B601D4
:100B600080E290E00E94DB062A94F4CFF50137FC86
:100B7000859137FE81915F01B60190E00E94DB060E
:100B800021102A9421E0821A91088114910471F7AE
:100B9000E8C0843611F0893641F5F80137FE07C008
:100BA00060817181828193810C5F1F4F08C06081D9
:100BB0007181072E000C880B990B0E5F1F4FF32DD0
:100BC000FF763F2E97FF09C09095809570956195AF
:100BD0007F4F8F4F9F4FF0683F2E2AE030E0A301F8
:100BE0000E941707882E861845C0853731F4232DBB
:100BF0002F7EB22E2AE030E025C0932D997FB92EAA
:100C00008F36C1F018F4883579F0B5C0803719F007
:100C1000883721F0B0C0E92FE061BE2EB4FE0DC0D0
:100C2000FB2DF460BF2E09C034FE0AC0292F2660B8
:100C3000B22E06C028E030E005C020E130E002C05E
:100C400020E132E0F801B7FE07C060817181828146
:100C500093810C5F1F4F06C06081718180E090E03E
:100C60000E5F1F4FA3010E941707882E8618FB2DC9
:100C7000FF773F2E36FE0DC0232D2E7FA22E891426
:100C800058F434FE0BC032FC09C0832D8E7EA82E92
:100C900005C0B82CA32C03C0B82C01C0B92CA4FEED
:100CA0000FC0FE01E80DF11D8081803321F49A2DE3
:100CB000997EA92E09C0A2FE06C0B394B39404C0C5
:100CC0008A2D867809F0B394A3FC11C0A0FE06C05B
:100CD000B21488F4280C922C9B180EC0B21460F445
:100CE000B60180E290E00E94DB06B394F7CFB21425
:100CF00018F42B1802C0982C212CA4FE10C0B601A9
:100D000080E390E00E94DB06A2FE17C0A1FC03C0B6
:100D100088E790E002C088E590E0B6010CC08A2D1B
:100D2000867859F0A1FE02C08BE201C080E2A7FCE8
:100D30008DE2B60190E00E94DB06891438F4B6011A
:100D400080E390E00E94DB069A94F7CF8A94F30147
:100D5000E80DF11D8081B60190E00E94DB06811054
:100D6000F5CF222009F442CEB60180E290E00E9445
:100D7000DB062A94F6CFF6018681978102C08FEFB9
:100D80009FEF2B96E2E10C949107FC0105906150D6
:100D900070400110D8F7809590958E0F9F1F089591
:100DA000FC016150704001900110D8F7809590953A
:100DB0008E0F9F1F08950F931F93CF93DF93FB0117
:100DC000238121FD03C08FEF9FEF2CC022FF16C0AF
:100DD00046815781248135814217530744F4A0810D
:100DE000B1819D012F5F3F4F318320838C932681FA
:100DF00037812F5F3F4F3783268314C08B01EC016F
:100E0000FB010084F185E02D0995892BE1F6D801DD
:100E100016968D919C911797019617969C938E9399
:100E20001697CE01DF91CF911F910F910895FA018E
:100E3000AA27283051F1203181F1E8946F936E7F19
:100E40006E5F7F4F8F4F9F4FAF4FB1E03ED0B4E00A
:100E50003CD0670F781F891F9A1FA11D680F791F4B
:100E60008A1F911DA11D6A0F711D811D911DA11D5C
:100E700020D009F468943F912AE0269F112430196C
:100E8000305D3193DEF6CF010895462F4770405D07
:100E90004193B3E00FD0C9F7F6CF462F4F70405DB6
:100EA0004A3318F0495D31FD4052419302D0A9F711
:100EB000EACFB4E0A6959795879577956795BA950B
:100EC000C9F700976105710508959B01AC010A2ED1
:100ED00006945795479537952795BA95C9F7620FA8
:100EE000731F841F951FA01D08952F923F924F924C
:100EF0005F926F927F928F929F92AF92BF92CF92AA
:100F0000DF92EF92FF920F931F93CF93DF93CDB7B2
:100F1000DEB7CA1BDB0B0FB6F894DEBF0FBECDBF2A
:100F200009942A88398848885F846E847D848C84FB
:100F30009B84AA84B984C884DF80EE80FD800C8104
:100F40001B81AA81B981CE0FD11D0FB6F894DEBFE7
:0C0F50000FBECDBFED010895F894FFCF57
:100F5C00317820656E636F64696E672052504D3A2C
:100F6C002030200A00317820656E636F64696E67EB
:0C0F7C002052504D3A200025660A0D005E
:00000001FF
