S019000044657369676E41737369676E6D656E74352E7372656363
S11300000C945A000C9477000C9477000C947700AD
S11300100C9477000C9477000C9477000C94770080
S11300200C9477000C9477000C9477000C94DF0206
S11300300C9477000C9477000C9477000C94770060
S11300400C9477000C9477000C9477000C949B022A
S11300500C94CA020C9477000C9477000C947700EB
S11300600C9477000C9477000C9477000C94770030
S11300700C9477000C9477000C9477000C94770020
S11300800C9477000C9477000C9477000C94770010
S11300900C9477000C9477000C9477000C94770000
S11300A00C9477000C9477000C9477000C947700F0
S11300B00C94770011241FBECFEFD8E0DEBFCDBF74
S11300C011E0A0E0B1E0E2EAFFE002C005900D9289
S11300D0A432B107D9F721E0A4E2B1E001C01D9236
S11300E0AE33B207E1F70E9447020C94CF070C9499
S11300F00000CF93DF939F938F937F936F9388E058
S113010091E09F938F931F9284E18F93CAE2D1E091
S1130110DF93CF930E94D704D0932901C093280181
S11301208DB79EB70A960FB6F8949EBF0FBE8DBFCB
S1130130DF91CF9108953C9A0895449A3C9808958C
S113014000000000000000000000000000000000AB
S113015008954F925F926F927F928F929F92AF9287
S1130160BF92CF92DF92EF92FF920F931F93CF93A0
S1130170DF9300D000D0CDB7DEB78C01BC017295FF
S113018062956F7067277F70672780E090E00E9418
S1130190DC0369837A838B839C8349805A806B80D8
S11301A07C8001FBAA24A0F8B12CB501BB0C880B00
S11301B0990B0E94DE0320E030E040E05EE30E9401
S11301C06A044B015C01B80161707727072E000CAB
S11301D0880B990B0E94DE0320E030E040E85DE3E9
S11301E00E946A049B01AC01C501B4010E94FE0295
S11301F04B015C0102FBCC24C0F8D12CB601DD0C10
S1130200880B990B0E94DE0320E030E040E85EE3B7
S11302100E946A049B01AC01C501B4010E94FE0264
S11302204B015C0103FBEE24E0F8F12CB701FF0C59
S1130230880B990B0E94DE0320E030E040E05FE38E
S11302400E946A049B01AC01C501B4010E94FE0234
S1130250A30192010E94FE0269837A838B839C83AB
S113026069817A818B819C810F900F900F900F9000
S1130270DF91CF911F910F91FF90EF90DF90CF907E
S1130280BF90AF909F908F907F906F905F904F90B2
S1130290089581E090E09093270180932601E1EC9A
S11302A0F0E0808188668083809126019091270107
S11302B0892BD1F70895909389008093880081E079
S11302C090E0909325018093240110928500109270
S11302D08400EFE6F0E0808182608083E1E8F0E072
S11302E08081682B60838091240190912501892B62
S11302F0D1F708950E949B00449862E08EE690E056
S11303000E945B01449A08950E949B0044980E94B5
S1130310A000449A62E08EE690E00E945B0108959A
S11303201F93CF93DF93CDB7DEB729970FB6F89419
S1130330DEBF0FBECDBF98E0E0E0F1E0DE01119634
S113034001900D929A95E1F7198699859830B0F449
S1130350182F9985E1E0F0E0EC0FFD1FE90FF11D86
S11303609081912319F00E94840102C00E947A01B5
S113037099859F5F99879985983058F329960FB688
S1130380F894DEBF0FBECDBFDF91CF911F910895CA
S1130390CF93DF931F92CDB7DEB70E949B004498A2
S11303A00E94A000449A0E949D0062E086E090E0D2
S11303B00E945B0186B1898362E08EE690E00E9430
S11303C05B018981829581700F90DF91CF910895AF
S11303D00E949B00449862E085EB93E00E945B01DD
S11303E0449A08950E94E8010E949D003499FECF2A
S11303F0349BFECF08950E94F2018CEC0E94900180
S113040084E40E9490010E949B0044980E94A000F2
S1130410449A0E949D00329BFECF0895CF93DF93B0
S113042000D01F92CDB7DEB71A8219820E94F20162
S11304308CEC0E9490018EEB0E9490011B828B81B8
S11304408031A8F40E94C8014B8129813A8190E04F
S113045002C0880F991F4A95E2F7822B932B9A8347
S113046089838B818F5F8B838B81803158F30E94CA
S1130470E80189819A810F900F900F90DF91CF91BD
S11304800895E1E8F0E08081886080830895CF9347
S1130490DF9300D0CDB7DEB71A8219821092C5005F
S11304A087E68093C40086E08093C2000E944102E4
S11304B078940F2EFDE0EF2EF1E0FF2EF02D07E1F2
S11304C011E00E94FB010E940E029A838983F0923C
S11304D02901E09228010E94490189819A810E94A0
S11304E0A9000E9479000E944901109329010093F8
S11304F028010E94490189819A810E94A90020E073
S113050030E040E151E40E946A0420E030E040EA37
S113051050E40E946A0320E030E040E052E40E948C
S1130520FE020E9479000E94490164E084E39CE099
S11305300E945B01C6CF1F920F920FB60F92112437
S11305408F939F93EF93FF93E0912801F0912901FA
S11305508081882369F080818093C600809128017E
S1130560909129010196909329018093280109C053
S1130570E1ECF0E080818F7D80831092270110925E
S11305802601FF91EF919F918F910F900FBE0F90D5
S11305901F9018951F920F920FB60F9211248F93EC
S11305A0EF93FF93E1ECF0E08081877B8083FF9100
S11305B0EF918F910F900FBE0F901F9018951F927F
S11305C00F920FB60F9211248F93EF93FF93109213
S11305D0250110922401E1E8F0E08081887F808386
S11305E0EFE6F0E080818D7F8083FF91EF918F9122
S11305F00F900FBE0F901F9018955058BB27AA2735
S11306000E9415030C9430040E94220438F00E94C6
S1130610290420F039F49F3F19F426F40C941F04A4
S11306200EF4E095E7FB0C941904E92F0E944104B1
S113063058F3BA17620773078407950720F079F413
S1130640A6F50C9463040EF4E0950B2EBA2FA02D9E
S11306500B01B90190010C01CA01A0011124FF276B
S1130660591B99F0593F50F4503E68F11A16F04066
S1130670A22F232F342F4427585FF3CF4695379565
S11306802795A795F0405395C9F77EF41F16BA0B2A
S1130690620B730B840BBAF09150A1F0FF0FBB1FD8
S11306A0661F771F881FC2F70EC0BA0F621F731F21
S11306B0841F48F4879577956795B795F7959E3F7E
S11306C008F0B0CF9395880F08F09927EE0F97950F
S11306D0879508950E947E030C9430040E94290497
S11306E058F00E94220440F029F45F3F29F00C9452
S11306F0190451110C9464040C941F040E944104C5
S113070068F39923B1F3552391F3951B550BBB273C
S1130710AA2762177307840738F09F5F5F4F220F81
S1130720331F441FAA1FA9F335D00E2E3AF0E0E878
S113073032D091505040E695001CCAF72BD0FE2FC2
S113074029D0660F771F881FBB1F26173707480756
S1130750AB07B0E809F0BB0B802DBF01FF2793580E
S11307605F4F3AF09E3F510578F00C9419040C94B5
S113077064045F3FE4F3983ED4F3869577956795D8
S1130780B795F7959F5FC9F7880F911D9695879543
S113079097F90895E1E0660F771F881FBB1F621762
S11307A073078407BA0720F0621B730B840BBA0B20
S11307B0EE1F88F7E0950895E89409C097FB3EF48E
S11307C090958095709561957F4F8F4F9F4F99239A
S11307D0A9F0F92F96E9BB279395F6958795779518
S11307E06795B795F111F8CFFAF4BB0F11F460FFD8
S11307F01BC06F5F7F4F8F4F9F4F16C0882311F030
S113080096E911C0772321F09EE8872F762F05C043
S1130810662371F096E8862F70E060E02AF09A95DE
S1130820660F771F881FDAF7880F9695879597F9D3
S1130830089597F99F6780E870E060E008959FEF5E
S113084080EC089500240A94161617061806090663
S1130850089500240A941216130614060506089532
S1130860092E0394000C11F4882352F0BB0F40F4BA
S1130870BF2B11F460FF04C06F5F7F4F8F4F9F4FFA
S1130880089557FD9058440F551F59F05F3F71F07C
S11308904795880F97FB991F61F09F3F79F08795E3
S11308A00895121613061406551FF2CF4695F1DF6C
S11308B008C0161617061806991FF1CF86957105FC
S11308C0610508940895E894BB2766277727CB0130
S11308D097F908950E947D040C9430040E94220428
S11308E038F00E94290420F0952311F00C94190487
S11308F00C941F0411240C9464040E94410470F3AA
S1130900959FC1F3950F50E0551F629FF001729FB0
S1130910BB27F00DB11D639FAA27F00DB11DAA1FBF
S1130920649F6627B00DA11D661F829F2227B00D0C
S1130930A11D621F739FB00DA11D621F839FA00D97
S1130940611D221F749F3327A00D611D231F849FE7
S1130950600D211D822F762F6A2F11249F5750403E
S11309609AF0F1F088234AF0EE0FFF1FBB1F661FB9
S1130970771F881F91505040A9F79E3F510580F082
S11309800C9419040C9464045F3FE4F3983ED4F38C
S1130990869577956795B795F795E7959F5FC1F726
S11309A0FE2B880F911D9695879597F90895AEE0D3
S11309B0B0E0EDEDF4E00C94A6070D891E898F8953
S11309C0988D26E02C831A83098397FF02C080E068
S11309D090E801979E838D83AE01455E5F4F698DDC
S11309E07A8DCE0101960E9407054D815E8157FDE7
S11309F00AC02F813885421753070CF49A01F80175
S1130A00E20FF31F10822E96E4E00C94C207ABE0D1
S1130A10B0E0EDE0F5E00C9498076C017B018A01ED
S1130A20FC0117821682838181FFCCC1CE0101961D
S1130A303C01F6019381F70193FD859193FF819128
S1130A407F01882309F4BAC1853239F493FD859175
S1130A5093FF81917F01853229F4B60190E00E94D1
S1130A60FE06E7CF912C212C312CFFE1F315D8F0B1
S1130A708B3279F038F4803279F08332A1F4232D6B
S1130A8020611DC08D3261F0803369F4232D216013
S1130A9016C0832D8260382EE32DE4603E2E2AC0DA
S1130AA0F32DF8601DC037FC2DC020ED280F2A302F
S1130AB040F08E32B9F436FC81C1232D2064322EED
S1130AC019C036FE06C08AE0989E200D1124922E8D
S1130AD011C0EAE02E9E200D1124222EF32DF06287
S1130AE03F2E08C08C3621F4832D8068382E02C036
S1130AF0883641F4F70193FD859193FF81917F013D
S1130B008111B3CF982F9F7D9554933028F40C5FB7
S1130B101F4F9FE399830DC0833631F0833771F003
S1130B20833509F059C021C0F801808189830E5FA3
S1130B301F4F88248394912C530113C02801F2E0A1
S1130B404F0E511CF801A080B18036FE03C0692D00
S1130B5070E002C06FEF7FEFC5010E94F3064C0105
S1130B608201F32DFF773F2E16C0280122E0420EAA
S1130B70511CF801A080B18036FE03C0692D70E0DD
S1130B8002C06FEF7FEFC5010E94E8064C01F32D10
S1130B90F0683F2E820133FC1BC0822D90E0881642
S1130BA09906B0F4B60180E290E00E94FE062A9411
S1130BB0F4CFF50137FC859137FE81915F01B601D1
S1130BC090E00E94FE0621102A9421E0821A9108E6
S1130BD08114910471F7E8C0843611F0893641F527
S1130BE0F80137FE07C060817181828193810C5FB7
S1130BF01F4F08C060817181072E000C880B990B70
S1130C000E5F1F4FF32DFF763F2E97FF09C090957F
S1130C108095709561957F4F8F4F9F4FF0683F2E61
S1130C202AE030E0A3010E943A07882E861845C0C6
S1130C30853731F4232D2F7EB22E2AE030E025C0F3
S1130C40932D997FB92E8F36C1F018F4883579F039
S1130C50B5C0803719F0883721F0B0C0E92FE061C2
S1130C60BE2EB4FE0DC0FB2DF460BF2E09C034FEB1
S1130C700AC0292F2660B22E06C028E030E005C045
S1130C8020E130E002C020E132E0F801B7FE07C005
S1130C9060817181828193810C5F1F4F06C06081E6
S1130CA0718180E090E00E5F1F4FA3010E943A071C
S1130CB0882E8618FB2DFF773F2E36FE0DC0232D80
S1130CC02E7FA22E891458F434FE0BC032FC09C0C6
S1130CD0832D8E7EA82E05C0B82CA32C03C0B82C5F
S1130CE001C0B92CA4FE0FC0FE01E80DF11D8081E6
S1130CF0803321F49A2D997EA92E09C0A2FE06C044
S1130D00B394B39404C08A2D867809F0B394A3FCF9
S1130D1011C0A0FE06C0B21488F4280C922C9B18B3
S1130D200EC0B21460F4B60180E290E00E94FE06A8
S1130D30B394F7CFB21418F42B1802C0982C212CBA
S1130D40A4FE10C0B60180E390E00E94FE06A2FE5D
S1130D5017C0A1FC03C088E790E002C088E590E0DA
S1130D60B6010CC08A2D867859F0A1FE02C08BE230
S1130D7001C080E2A7FC8DE2B60190E00E94FE066D
S1130D80891438F4B60180E390E00E94FE069A9438
S1130D90F7CF8A94F301E80DF11D8081B60190E04C
S1130DA00E94FE068110F5CF222009F442CEB6013E
S1130DB080E290E00E94FE062A94F6CFF601868136
S1130DC0978102C08FEF9FEF2B96E2E10C94B4075A
S1130DD0FC010590615070400110D8F78095909502
S1130DE08E0F9F1F0895FC01615070400190011007
S1130DF0D8F7809590958E0F9F1F08950F931F939A
S1130E00CF93DF93FB01238121FD03C08FEF9FEF7D
S1130E102CC022FF16C04681578124813581421798
S1130E20530744F4A081B1819D012F5F3F4F31836B
S1130E3020838C93268137812F5F3F4F378326830E
S1130E4014C08B01EC01FB010084F185E02D0995B0
S1130E50892BE1F6D80116968D919C9117970196EE
S1130E6017969C938E931697CE01DF91CF911F9185
S1130E700F910895FA01AA27283051F1203181F108
S1130E80E8946F936E7F6E5F7F4F8F4F9F4FAF4F8E
S1130E90B1E03ED0B4E03CD0670F781F891F9A1FA1
S1130EA0A11D680F791F8A1F911DA11D6A0F711D55
S1130EB0811D911DA11D20D009F468943F912AE061
S1130EC0269F11243019305D3193DEF6CF01089549
S1130ED0462F4770405D4193B3E00FD0C9F7F6CF7A
S1130EE0462F4F70405D4A3318F0495D31FD405242
S1130EF0419302D0A9F7EACFB4E0A69597958795D8
S1130F0077956795BA95C9F70097610571050895B6
S1130F109B01AC010A2E0694579547953795279562
S1130F20BA95C9F7620F731F841F951FA01D0895FA
S1130F302F923F924F925F926F927F928F929F92E5
S1130F40AF92BF92CF92DF92EF92FF920F931F93D3
S1130F50CF93DF93CDB7DEB7CA1BDB0B0FB6F89484
S1130F60DEBF0FBECDBF09942A88398848885F84C4
S1130F706E847D848C849B84AA84B984C884DF8035
S1130F80EE80FD800C811B81AA81B981CE0FD11D19
S1130F900FB6F894DEBF0FBECDBFED010895F894EF
S1050FA0FFCF7D
S1130FA2010204081020408025660D0A0043656C86
S1130FB2736975733A200046616872656E68656983
S1070FC2743A200059
S9030000FC
