:100000000C9434000C943E000C943E000C943E0082
:100010000C943E000C943E000C943E000C943E0068
:100020000C943E000C943E000C943E000C943E0058
:100030000C943E000C943E000C943E000C943E0048
:100040000C943E000C943E000C943E000C943E0038
:100050000C943E000C943E000C943E000C943E0028
:100060000C943E000C943E0011241FBECFEFD8E04C
:10007000DEBFCDBF0E9440000C9469000C940000CC
:10008000239A2B983B98439A2B9A2FE78AE294E184
:10009000215080409040E1F700C000002B982FE7EE
:1000A00084E790E1215080409040E1F700C00000DB
:1000B0003399EACF2398229A2FEF87EA91E62150CD
:1000C00080409040E1F700C0000022982A98239ACF
:0600D000DBCFF894FFCF26
:00000001FF
